:020000040800F2
:10000000480D0020D50200081D3B0008E33500081C
:10001000913A0008031D0008ED46000800000000AA
:100020000000000000000000000000006740000821
:10003000051D000800000000654000086940000838
:10004000EF020008EF020008EF020008EF020008CC
:10005000EF020008EF020008EF020008EF020008BC
:10006000EF020008EF020008EF020008EF020008AC
:10007000EF020008EF020008EF020008EF0200089C
:10008000EF020008EF020008EF020008EF0200088C
:10009000EF020008EF020008EF020008EF0200087C
:1000A000EF02000811410008EF020008EF0200080B
:1000B0001D410008EF020008EF020008EF020008EF
:1000C000EF020008EF020008EF020008EF0200084C
:1000D000EF020008D5460008E1460008EF020008DC
:1000E000EF020008EF020008EF020008EF0200082C
:1000F000EF020008EF020008EF020008EF0200081C
:10010000EF020008EF020008EF020008EF0200080B
:10011000EF020008EF020008EF020008EF020008FB
:10012000EF020008EF020008EF020008EF020008EB
:10013000EF020008EF020008EF020008EF020008DB
:10014000EF020008EF020008EF020008EF020008CB
:10015000EF020008EF020008EF020008EF020008BB
:10016000EF020008EF020008EF020008EF020008AB
:10017000EF020008EF020008EF0200080000000094
:10018000EF020008EF02000800F002F800F092F819
:100190000AA090E8000C82448344AAF10107DA45E2
:1001A00001D100F087F8AFF2090EBAE80F0013F0A2
:1001B000010F18BFFB1A43F0010318474452000017
:1001C00064520000103A24BF78C878C1FAD85207A8
:1001D00024BF30C830C144BF04680C6070470000C1
:1001E0000023002400250026103A28BF78C1FBD840
:1001F000520728BF30C148BF0B6070476E2900F01E
:100200003382702900F07583662904F0D483652950
:1002100004F0D183672904F0CE83612904F0CD83F3
:1002200003681B0A28BF41F08001692900F0E081C2
:10023000642900F0DD81752900F0DA816F2900F072
:100240000283782900F04183E92900F09D82E429A6
:1002500000F09A82F52900F09782EF2900F0FF82E2
:10026000F82900F040830368DB0928BF41F08001D2
:10027000632901F04380732901F04880E32901F0EC
:100280005380F32901F05880002070471FB504F017
:100290008DFB01F0A7F804000020002104F070FBA2
:1002A000401C60600020002104F054FBE0601FBD92
:1002B00010B510BD01F068F81146FFF7E7FF04F034
:1002C000D5FA01F045F903B4FFF7F2FF03BC01F0E2
:1002D00049F900000948804709480047FEE7FEE762
:1002E000FEE7FEE7FEE7FEE7FEE7FEE7FEE7FEE7E6
:1002F00004480549054A064B7047000001410008C3
:100300008901000848070020480D00204809002006
:100310004809002053EA020C00F069802DE9F04BF7
:100320004FF00006002B1FBFB3FA83F503FA05F464
:1003300024FA05F65E4012BF1643B2FA82F502FABD
:1003400005F4C5F120051EBF22FA05FC44EA0C04A1
:10035000203556EA044C4FEA144418BF641C4FF091
:1003600000084FF00009904271EB030C39D30029CB
:1003700019BFB1FA81F701FA07F6B0FA80F700FA6F
:1003800007F6C7F120071EBF20FA07FC46EA0C0655
:100390002037B6FBF4FCA7EB0507103F07F01F0B57
:1003A000CBF120060CFA0BFB2CFA06F644BFB34641
:1003B0000026202FA4BF5E464FF0000B5BEA060C20
:1003C00008BF4FF0010B19EB0B09ABFB027C48EBAC
:1003D0000608C01B06FB02CC0BFB03CC71EB0C0127
:1003E000C1E70B46024641464846BDE8F08B13B5CF
:1003F0004FF000004FF00001AFF30080BDE81C405B
:10040000704700001CB50C46064B7B4469460090C3
:10041000204600F042F904460020694600F050F9F9
:1004200020461CBDB30200000FB41CB5084B06AA41
:100430007B4469460090059800F02FF9044600209F
:10044000694600F03DF920461CBC5DF814FB000035
:100450008D0200004FF0000200B513469446964608
:10046000203922BFA0E80C50A0E80C50B1F12001C7
:10047000BFF4F7AF090728BFA0E80C5048BF0CC075
:100480005DF804EB890028BF40F8042B08BF7047D3
:1004900048BF20F8022B11F0804F18BF00F8012B45
:1004A000704700004FF0013C50F8042B51F8043B1A
:1004B0009A4221D1A2EB0C03934313EACC1317D138
:1004C00050F8042B51F8043B9A4215D1A2EB0C03CF
:1004D000934313EACC130BD150F8042B51F8043B8F
:1004E0009A4209D1A2EB0C03934313EACC13DBD05D
:1004F0004FF00000704700BFD01A01BAB1FA81F185
:1005000001F0180122FA01F0CB40C1F12001DBB269
:10051000C0B2C01A2CFA01F3D11A914311EAC311E7
:10052000E6D1704770477047704770B504468569DB
:100530000068C10601D5302600E02026C00707D09C
:1005400070BDD4E9012130469047206A401C2062EA
:100550006D1EF6D570BD70B5044685690078C0077C
:1005600007D170BDD4E9012120209047206A401CAA
:1005700020626D1EF6D570BD09684A0501D540B2EE
:100580007047C905FCD500B2704709684A0501D516
:10059000C0B27047C905FCD580B2704770B50C4633
:1005A0000546012A05D02878800600D5EA6900238F
:1005B00002E0012305E05B1C934202D2E05C0028CC
:1005C000F9D1A869E618C01AA861286A18442862F7
:1005D0002846FFF7AAFF04E0D5E9012114F8010B32
:1005E0009047B442F8D32846FFF7B5FF70BD00002E
:1005F0002DE9F0410646002410687529314616A5FC
:1006000010D0FFF7B9FF002802DA404213A507E037
:1006100031688A0701D512A502E0490704D511A562
:10062000012401E0FFF7B1FF00210A2206F12407AF
:1006300009E0B0FBF2FCB0FBF2F302FB1C0030302F
:1006400078541846491C0028F3D123462A463046E0
:10065000BDE8F04100F061BA000000002D0000008C
:100660002B0000002000000011680268006A53059A
:1006700001D508700AE0D30501D5088006E013060D
:1006800003D5C217C1E9000200E0086001207047ED
:1006900001694A1C02610878704700B58FB0CDE946
:1006A00001310021059105497944CDE90310114636
:1006B000684600F029F90FB000BD0000E5FFFFFF1C
:1006C0000A6802F8010B0A60704700002DE9FF5F1D
:1006D00015468A460446DFF8AC80F8440027D8E97E
:1006E00000103E46CDE9001010E03AF816106A46B8
:1006F00002A800F025FE411C07D02178890603D509
:10070000E269391891420DD80744761C207880069A
:1007100002D5E069B84205DDAE42E6DB3AF81600E4
:100720000028E2D1A069C01BA0612046FFF7FDFEB2
:10073000D8E90010CDE90010002017E03AF81810B1
:100740006A4602A800F0FCFDB0F1FF3F81460BD0E5
:1007500000250DF1080B05E0D4E901211BF8050087
:1007600090476D1C4D45F7D308F10100B04280461B
:10077000E4DB206A384420622046FFF7ECFEBDE847
:10078000FF9F0000264C00002DE9F0418046D21D5D
:1007900022F007020025D2E90002F52915A614D09F
:1007A000011E72F1000106DA0023D0EB030063EBB7
:1007B000020211A608E0D8F800108B0701D50FA699
:1007C00002E0490701D50EA601251146002408F1D3
:1007D000240704E000F05CF930323A55641C50EA1A
:1007E0000102F7D12B46324621464046BDE8F04192
:1007F00000F093B9000000002D0000002B00000065
:100800002000000030B4002100F1240408E002F0D0
:100810000705D208303542EA4372DB086554491CAB
:1008200052EA0305F3D10468002310A2250707D577
:10083000A40600D421B1C46901230DA2641EC461C1
:1008400030BC00F06AB910B5044621461068FFF7C5
:100850009CFE02462046BDE810400023D2E7D21D90
:1008600022F00701D1E90023CCE7000000000000DE
:1008700030000000F0B40D460188090502D5214C76
:100880007C4402E01F4C7C440E34002100F124061D
:1008900008E002F00F071209E75D42EA03721B0944
:1008A0007754491C52EA0307F3D102780023120758
:1008B00004D5702D06D009B1022311342246F0BCB4
:1008C00000F02BB901231034F8E770B504460D464B
:1008D00021461068FFF759FE024629462046BDE82A
:1008E00070400023C6E7D21D22F00703D3E900239E
:1008F000C0E70368126843F0200303600823C36164
:100900000023B7E7884A00002DE9F05F89460446D6
:100910004FF0000ADFF874B1FB44C0F820A0204675
:10092000E1688847002874D0252806D0D4E9012141
:100930009047206A401C2062F1E700265F4620466F
:10094000E16888472028054607DB312D05D2781954
:1009500010F8200C08B10643F1E7B00701D526F0E6
:100960000406C4F81CA00027C4F818A02A2D09D03A
:10097000284603F0E4FE38B304EB8708303DC8F89E
:10098000185019E059F8041B204604EB87029161C6
:10099000E1688847012F054618D1E069002820DA70
:1009A00026F020061DE0D8F8180000EB800005EBCB
:1009B00040003038C8F818002046E16888470546EE
:1009C00003F0BDFE0028EED1012F0AD02E2D08D154
:1009D0002046E16888477F1C0546022F46F0200626
:1009E000C4DBA069002803DA404246F00106A0619A
:1009F000F00701D026F010066C2D0BD0682D09D021
:100A00004C2D39D06A2D35D0742D35D07A2D33D078
:100A100016E038E0E1682F4620468847B842054690
:100A200009D16C2F26D04FF48060E1680643204640
:100A30008847054604E06C2F1AD04FF480700643B7
:100A40000DB3A5F14100192802D8203546F40066FF
:100A50004A462946204626604E46FFF7CFFB80B126
:100A600001280BD0F61D26F0070000F1080956E713
:100A70004020E4E78020D8E70020D6E706F104090B
:100A80004DE7284652E7206ABDE8F09F184A00006B
:100A900030B5B0F10A024FEA900E71F100034EEA50
:100AA000817EB0EB0E0061EB91014FEA101E4EEA21
:100AB000017E10EB0E0041EB11114FEA102E4EEAB1
:100AC000016E10EB0E0041EB11214FEA104E4EEA81
:100AD000014E10EB0E0041EB1141401841F10001B5
:100AE0004FEAD00040EA41704FEAD10110EB800597
:100AF0004FEA810444EA907444EB01046D1944EB1D
:100B00000404521BA3414FF0000348BF0A3200D532
:100B100030BD401C41F1000130BD2DE9F0470D46CC
:100B200099469246044600F124080168880604D5D7
:100B3000E06921F01001216000E00120A84201DD00
:100B4000471B00E00027A1697A1902EB0900081A87
:100B5000A0612078C00602D42046FFF7E6FC0026FC
:100B600008E0D4E901211AF806009047206A401CE9
:100B7000761C20624E45F4DB2078C0060AD520465C
:100B8000FFF7D3FC06E0D4E9012130209047206A2A
:100B9000401C2062381EA7F10107F4DC07E0D4E90D
:100BA000012118F805009047206A401C2062281E89
:100BB000A5F10105F3DC2046FFF7CDFC2078000607
:100BC00002D50220BDE8F0870120FBE770472DE940
:100BD000FF4F0C461E464FF0FF378BB0D2E90001A5
:100BE000DDF860800A908A46C1F30A5505B93D4692
:100BF000002108464FF00000BAF1000F00F4400059
:100C000005DA00EB80004FF4400101EA50004FEAA2
:100C10009059B9F1010F00DDB9460A9850EA4A002F
:100C20000ED044F61050A5F2FF3545432F14B8F10D
:100C3000000F1ED07542291E1EDDC9F100021CE006
:100C4000B8F1010F4FF0000001D0302103E0F24372
:100C500005E02154401CB042FBDB3046002200215D
:100C600021540B99C1F80880C1E900200FB0BDE8FC
:100C7000F08FBD1B6D1CDEE74A4600DA694206A80C
:100C800000F0F4FB06AB93E8070003AB83E8070032
:100C900050460A9900F06DFC8DE80700A0F5005061
:100CA0001F3800900398002D0ADD42F21F014A46CA
:100CB0000844002303A90390684600F0D6FE09E02B
:100CC000A0F500504A461F38002303A90390684648
:100CD00000F0E0FE8DE807000004000C03D04FF0A8
:100CE000FF30410800E01046B8F1000F03D00022A9
:100CF000009215461EE0751E05D4FFF7C9FE30327E
:100D000062556D1EF9D5B3460122084302D0002278
:100D10007F1C04E02078302801D100227F1E002AA9
:100D2000099784D01DE0112D07DAFFF7B1FE3032AC
:100D300062556D1C50EA0102F5D1084302D00098BB
:100D4000C8B10EE00021681E05E0235C625C6354BC
:100D50002254401E491C8142F7DBAB46A81B401EB3
:100D60000990002004F80B000B98099AC0F808803D
:100D7000C0E9002B7AE711264FF0000857E72DE96C
:100D8000F04F88460446D21D22F0070191B0D1E908
:100D90000001CDE90A0103F0AAFC02460B98C00F3E
:100DA00001D02D2007E02068810701D52B2002E02B
:100DB000202101EAC000032A099001D0072A05DB9F
:100DC00003464146204600F011FB0BE120788006E7
:100DD00001D5E06900E00620B8F1650F814606D034
:100DE000B8F1660F18D0B8F1670F70D131E000206C
:100DF000B9F1110F009001DB112301E009F10103AA
:100E00000AAA01A90CA8FFF7E2FEDDE90C70002692
:100E100009F10105834647E001204B4600904FF061
:100E200000470AAA01A90CA8FFF7D1FEDDE90DB021
:100E30000C995D46002610B909F101000D18B9EBB7
:100E4000050003D4C0F1FF3609F10105A5EB090047
:100E50002BE0B9F1010F01DA4FF001090020B9F1DF
:100E6000110F0090484601DD112300E003460AAA55
:100E700001A90CA8FFF7ABFEDDE90C704D4600267A
:100E80008346207800070AD4AB4500DA5D4601A806
:100E9000012D04DD411911F8011C302907D04F45FF
:100EA00002DA17F1040F04DA012082460FE06D1E0A
:100EB000EEE7002F02DCED1B3E4403E0781CA84265
:100EC00000DD7D1CB81B00F1010A4FF000472078BF
:100ED000000703D4AA4501DB4FF0FF3A0021B7F128
:100EE000004F0DF143088DF8431024D002202B232E
:100EF000002F01DA7F422D230A21021EA0F10100FA
:100F000000DC5FB197FBF1FC97FBF1F201FB1C7C6D
:100F100017460CF1300C08F801CDEEE7A8F10100FE
:100F200003702188090501D5452100E06521A0F164
:100F3000010800F8011C09980FA9A1EB0807FF1D83
:100F400000B10120411901EBEA70A1693844081A87
:100F5000401EA0612078C00602D42046FFF7E5FAC3
:100F6000099828B1D4E901219047206A401C2062E9
:100F70002078C00622D52046FFF7D7FA1EE0002EC3
:100F800004DBB34502DD01A8805D00E03020D4E938
:100F900001219047206A401C2062761CAAF10100C2
:100FA0005FEA000A0AD100F01DFAC0680168405CDF
:100FB000D4E901219047206A401C2062281EA5F137
:100FC0000105DCDC07E0D4E9012118F8010B9047AA
:100FD000206A401C2062381EA7F10107F3DC20467E
:100FE000FFF7B9FA032011B041E600002DE9F04FF8
:100FF00004460D46D21D22F0070089B0D0E90097C3
:101000004846394603F073FB0246F80F01D02D2302
:1010100007E02068810701D52B2302E0202101EAA7
:10102000C0038DF820300BB1012000E00020032A1E
:10103000824601D0072A04DB2946204600F0D6F973
:101040003FE12078800601D40D2500E0E569C7F373
:101050000A560D2D49DA00214FEA175B08464FF07A
:101060000000002F00F4400007DA00EB80004FF48E
:10107000400100EBD07001EA60008115012901DD1B
:101080004FF0FF3100224FEA850CBCF1180F06D358
:101090001346ACF118004FF08052C24003E04FF409
:1010A000801323FA0CF30CF10C0CBCF1200F04D3C9
:1010B000ACF1200C09FA0CF001E007FA0CF0002961
:1010C0004FF0004801DD18B90FE00ED140450CD3B8
:1010D00019EB02095F4121B9404502D19F4329EA3A
:1010E0000209BBEB175F00D0761C2088000502D5F3
:1010F0007B48784402E07A487844193808AA3023BB
:1011000002F80A30037C0AF10101002E0AF1020AFA
:1011100053546A4602DC4FF0300101E04FF03101D8
:101120004FF001088DF8001002D0A6F2FF3603E060
:1011300059EA470100D06B4E002D02DC21780907E7
:1011400004D54FF002082E218DF80110C44600216D
:101150000BE0C7F303433F01C35C491C6D1E02F85B
:101160000830052908F1010801DA002DF1DC002121
:101170000CE000EB1973491C1B786D1E082902F85E
:1011800008304FEA091908F1010801DA002DF0DCF6
:1011900021688B0602D516E0A8F10108E04505DDBF
:1011A00002EB080313F8013C302BF5D0B8F1000F27
:1011B00009DD02EB080313F8013C2E2B03D10907CC
:1011C00001D4A8F10108002D05DD3E2102F8081028
:1011D0006D1E08F10108407C002E02F8080008F19D
:1011E000010804DA2D20764202F8080002E02B20E4
:1011F00002F808000A214FF47A70864208F10108CB
:101200000BDB96FBF0F3303302F8083096FBF0F37B
:1012100008F1010800FB136601E0642E0CDB64207A
:1012200096FBF0F3303302F8083096FBF0F308F148
:10123000010800FB136601E00A2E06DB96FBF1F0C5
:10124000303002F8080008F1010896FBF1F001FBCC
:101250001060303002F80800A16908F1010808EBBD
:10126000050202EB0A00081AA0612078C00602D429
:101270002046FFF75AF9216A08AE01EB0A00206206
:1012800004E0D4E9012116F8010B9047BAF1010AF4
:10129000F7D22078C00602D52046FFF746F96E4601
:1012A00009E016F8010B3E280FD0D4E90121904740
:1012B000206A401C2062B8F10108F2D22046FFF7F4
:1012C0004AF909B00320BDE8F08F206A2844206263
:1012D00003E0D4E90121302090476D1EEBD3F8E7FD
:1012E0006242000002FCFFFF10B5436913B1AFF387
:1012F000008001E0FFF752F9012010BD127800F1E3
:1013000024010A7000224A700122EDE711684FF0B3
:10131000FF32E9E710B5436913B1AFF3008001E094
:10132000FFF7D4F9012010BD128800F12401828456
:101330000022C2840122EDE711684FF0FF32E9E795
:1013400070B516460C46054600F044F8036893F85D
:101350000101012806D0FF2C0FD8185D68B10120CB
:101360002C7070BDD3F807013246214603F20713F3
:1013700003442846BDE8704018474FF0FF3070BD69
:1013800000487047E40600207546FFF7F9FFAE46B7
:1013900005006946534620F00700854618B020B581
:1013A000FEF7A6FFBDE820404FF000064FF0000713
:1013B0004FF000084FF0000B21F00701AC46ACE8FD
:1013C000C009ACE8C009ACE8C009ACE8C0098D466A
:1013D0007047000010B500F005F8001D10BD00BFFB
:1013E000A135000000487047040700202DE9F041B6
:1013F0001F46044603260168072A01F4006004DB47
:1014000008B116A505E016A503E008B115A500E092
:1014100015A521F010002060A069C01EA0610FB1C9
:10142000401EA0612046FFF780F84FB1D4E90121AA
:1014300038469047206A401C2062C01C206206E0AB
:10144000206AFAE7D4E9012115F8010B9047761ECE
:10145000F8D22046FFF77FF8BDE8F0814E414E00FC
:101460006E616E00494E4600696E66002DE9F047D8
:10147000814616468AB0354878440DC88DE80D007F
:1014800032487844801C03AC0DC884E80D0041F656
:101490009B300844372190FBF1F290FBF1F5A5F168
:1014A000800501FB12041B3C02D56442012000E0D0
:1014B0000020DFF898A080460027FA44AAF1BE0A6F
:1014C0000EE0E0070AD03246684607EB47010123E9
:1014D0000AEB810100F0DEFA8DE8070064107F1C42
:1014E000002CEED1194F7F44AE3F19E0E80715D02C
:1014F00007EB04100DF1180A90E80E008AE80E00C0
:10150000C068F04201D1981908903246012306A91B
:1015100003A800F0BFFA03AB83E807006D10641C5A
:10152000002DE3D14FF0010332466946B8F1000FB8
:1015300003A802D000F099FA01E000F0ABFAC9E983
:101540000001C9F808200AB0BDE8F0876C3F000030
:1015500010B50446AFF300802046BDE81040FEF70A
:10156000B2BE000001491820ABBEFEE72600020013
:1015700070475FEA400C08BF91F0000F4FEA8C23E0
:101580004FEAC12243EA51514FEA1C5018BF00F5FF
:10159000F0404FEA300018BF41F000415FEA6C5C58
:1015A00000F02980BCF1FF3F08BF40F08040704749
:1015B000130C06BF12044FF0100C4FF0000C130E6A
:1015C00004BF12020CF1080C130F04BF12010CF13E
:1015D000040C930F04BF92000CF1020CD30F04BF54
:1015E00052000CF1010C11464FF00002A0F11F0057
:1015F000A0EB0C00704711F0004F08BF704731F0AE
:1016000000413FF4D5AF0B0C06BF09044FF0100C9E
:101610004FF0000C0B0E04BF09020CF1080C0B0F6D
:1016200004BF09010CF1040C8B0F04BF89000CF1FD
:10163000020CCB0F04BF49000CF1010CCCF12003CC
:10164000A0EB0C0022FA03F302FA0CF241EA0301C8
:1016500000F10100704720F07F4C80EA030023F086
:101660007F47ACEB070303F57C5300F0004003F128
:10167000FF032DE980494FEA154B09B44FEA1443A3
:1016800025EA0B4E24EA03480FF2042606EB132743
:1016900049083E785FEA320203FB0667C7F5000798
:1016A00007FB06F64FEA54374FEAD64606F1020624
:1016B00007FB066CCCF1005C4FEA1C472CEA074C98
:1016C00007FB06F40CFB06F504EB15464FEA9616ED
:1016D00034BF00204FF000404FEAD13706FB07FC33
:1016E0004FEA1C4C0CFB0BF7D21B03FB0CF761EB16
:1016F00007010CFB0EF7B0EB074072EB17420CFB37
:1017000008F734BFA2EB0742B2EB074261EB174187
:101710004FEA0C444FEA910706FB07FC4FEA1C4CCA
:101720000CFB0BF7B0EBC74072EB573203FB0CF727
:1017300034BFA2EBC742B2EBC74261EB57310CFB9F
:101740000EF7B0EBC70072EB57720CFB08F734BF13
:10175000A2EBC702B2EBC70261EB5771039F4FEADE
:10176000816141EA921104EBCC044FEAD1374FEA90
:10177000826206FB07FC42EA90124FEA80604FEA61
:101780001C4C0CFB0BF7D21B03FB0CF761EB0701A6
:101790000CFB0EF7B0EB074072EB17420CFB08F79F
:1017A00034BFA2EB0742B2EB074261EB17414FEAAD
:1017B0008C554FEA910704EB9C2406FB07FC4FEA8B
:1017C0001C4C0CFB0BF7B0EBC74072EB573203FB22
:1017D0000CF734BFA2EBC742B2EBC74261EB573103
:1017E0000CFB0EF7B0EBC70072EB57720CFB08F75F
:1017F00034BFA2EBC702B2EBC70261EB577115EB26
:101800004C254FEA816141EA92114FEA82624FEA28
:10181000D13742EA901206FB07FC44F100044FEA7C
:1018200080604FEA1C4C0CFB0BF7D21B03FB0CF740
:1018300061EB07010CFB0EF7B0EB074072EB1742B0
:101840000CFB08F734BFA2EB0742B2EB074261EB97
:10185000174115EB1C154FEA813141EA92414FEADD
:10186000823242EA90424FEA80304FEA0C7644F1ED
:10187000000448EA03434EEA0B484FF0000EB2EB77
:10188000080C71EB030724BF624639464EEB0E0E7F
:101890004FF0000B0018524149414BEB0B0BB2EBE0
:1018A000080C71EB03077BF1000B24BF624639463D
:1018B0004EEB0E0E4FF0000B0018524149414BEB1E
:1018C0000B0BB2EB080C71EB03077BF1000B24BF91
:1018D000624639464EEB0E0E51EA020718BF46F03B
:1018E000010616EB0E7655F1000254F1000103D506
:1018F000BDE88901BDE80088BDE88901BDE8004870
:10190000B619524141EB0101A3F1010370478080F8
:101910007F7E7D7C7B7A7978777676757473727149
:1019200071706F6E6E6D6C6C6B6A6A696868676601
:1019300066656464636362616160605F5F5E5E5D93
:101940005D5C5C5B5B5A5A59595858575756565507
:1019500055555454535352525251515050504F4F69
:101960004F4E4E4D4D4D4C4C4C4B4B4B4A4A4A49B9
:1019700049494848484747474746464645454544FC
:101980004444444343434342424242414141002B89
:101990009C4630D477002BD01CB54FEA370703B4F0
:1019A0004FF010004FF01001BAF1000F06D0BCF15B
:1019B000000FDCBF40F0080040F008014FF00000CD
:1019C0000FBCBDE810400BF1010BBBF1010F08BFCC
:1019D0005FEA170722BF12F1010211F101014FF076
:1019E000004143F1000300F0004043EA000070476B
:1019F000F9D35708D0E746EA064613F1400F4FEAFD
:101A000016461FDD13F1200FDFBF16430A460021E3
:101A100020335B42BED0C3F1200746EA064602FAF5
:101A200007F74FEA164646EA0706C3F1200722FAEF
:101A300003F201FA07F721FA03F14FF0000342EA3B
:101A40000702A7E746EA020646EA06464FEA1646B6
:101A500046EA0106BCBF46EA0646360C4FF00003D4
:101A60004FF000024FF0000194E72DE9804C9A46B8
:101A7000934670B491E8380007C831EA400C48BF7B
:101A800034EA430C03D5FFF7E6FDFFF780FFF0BC17
:101A9000BDE8008C2DE9804C9A46934670B491E8DD
:101AA000380007C810F0804F08BF13F0804F03D1F3
:101AB00000F005F8FFF76BFFF0BCBDE8008C20F0EC
:101AC0007F4780EA030023F07F4C07EB0C03A3F56C
:101AD0007C5300F00040A3F1FE0392F0000F00F0F1
:101AE000B38095F0000F00F077802DE901494FEAAF
:101AF00011404FEA144621EA004800FB06FC24EAA4
:101B0000064708FB06F607FB08F800FB07F718EB8B
:101B100006484CEB164C4FEA124B18EB07484FEABD
:101B200015464CEB174022EA0B4E0BFB06FC25EA50
:101B300006470EFB06F607FB0EFE0BFB07F71EEB38
:101B4000064E4CEB164C4FF000061EEB074E4CEBCE
:101B5000174B18EB0B0840F1000018EB0E0B58EB7D
:101B6000000840F100008F1A4FF000013CBFC9434C
:101B7000661B14BFB5EB040C00213CBFC943F61B28
:101B80004FEA17444EEA8E0E27EA04454FEA1C47F7
:101B900004FB07622CEA074C05FB07F70CFB05F674
:101BA00004FB0CFC16EB074642EB174216EB0C4607
:101BB00042EB1C421BEB060658EB0202414146EA8F
:101BC0009E0601D5BDE80189B619524141EB0101DC
:101BD000A3F10103BDE801894FEA14454FEA11471B
:101BE00024EA054621EA074C05FB07F406FB07F744
:101BF0000CFB06F105FB0CFC11EB074144EB174411
:101C00004FEA124711EB0C4144EB1C4422EA074C0B
:101C100005FB07F206FB07F70CFB06F605FB0CFCC1
:101C200016EB074642EB174216EB0C4642EB1C45FF
:101C30006A1854F1000148BF7047B619524141EB90
:101C40000101A3F10103704795F0000F37D04FEA6F
:101C500011424FEA144721EA024624EA074C02FBEC
:101C600007F106FB07F70CFB06F402FB0CFC14EB78
:101C7000074441EB17414FEA154714EB0C4441EB85
:101C80001C4125EA074C02FB07F506FB07F70CFB96
:101C900006F602FB0CFC16EB074645EB174516EB68
:101CA0000C4645EB1C42121951F1000148BF704728
:101CB000B619524141EB0101A3F1010370474FEA0C
:101CC00014454FEA114724EA054621EA074C05FB73
:101CD00007F106FB07F70CFB06F24FF0000605FBC9
:101CE0000CFC12EB074241EB174112EB0C4251EB9B
:101CF0001C4148BF7047921841EB0101A3F1010359
:101D00007047FEE7704700EBC000C1004FF0E020D5
:101D1000416100218161052101610169C903FCD58F
:101D2000042101617047000003480168486A0022ED
:101D300000B24A62704700000C01002003480168AD
:101D4000486A002200B24A62704700005401002035
:101D500072B6FEE72DE9F0410446876D00F058F9B0
:101D6000064694F835000025022806D080206065DC
:101D700084F834500120BDE8F0812068016821F02A
:101D8000160101602068416921F080014161206CE9
:101D900008B9A06C20B12068016821F00801016039
:101DA0002068016821F0010101600CE000F030F9C9
:101DB000801B052807D920206065032084F83500A2
:101DC00084F83450D7E720680068C007EED194F853
:101DD0005C103F208840B860012084F8350084F80A
:101DE00034500020C7E790F83510022903D0802135
:101DF000416501207047052180F8351000680168B1
:101E000021F0010101600020704700002DE9F84F2A
:101E1000DFF8BCA10022012503264FF00F090AF1CB
:101E2000040BAAF1040E00BF0B6805FA02F423406C
:101E3000A34270D10F7907F00307012F01D0022FC1
:101E400016D187684FEA420806FA08FC27EA0C0711
:101E5000D1F80CC00CFA08FC4CEA070CC0F808C01A
:101E60004768A7430C79C4F3001494403C43446092
:101E70000C79E443A4070AD0C4684FEA420C06FA7E
:101E80000CF7BC438F6807FA0CF72743C7600C793F
:101E900004F00304022C12D1D40800EB840CDCF80B
:101EA00020405707FF0E09FA07F824EA0804D1F882
:101EB000108008FA07F848EA0408CCF82080046883
:101EC0004FEA420C06FA0CF7BC430F7907F0030700
:101ED00007FA0CF7274307604C6814F4403F70D0B2
:101EE0003C4C276847F480472760246822F00307AA
:101EF00004F480440094384C07EB040CDCF80848E8
:101F000097074FEA177809FA08F7BC43334FB842EE
:101F100002D1002724E054E0314FB84201D101271B
:101F20001EE0304FB84201D1022719E02E4FB842CF
:101F300001D1032714E02D4FB84201D104270FE04F
:101F40002B4FB84201D105270AE02A4FB84201D1F0
:101F5000062705E0284FB84201D1072700E00827EF
:101F600007FA08F72743CCF80878DAF80040574614
:101F7000D1F804C09C435FEACC2C00D51C433C60E4
:101F8000DBF800405F46D1F804C09C435FEA8C2C2C
:101F900000D51C433C60DEF800407746D1F804C011
:101FA0009C435FEA8C3C00D51C433C60084F083FD3
:101FB0003C68D1F804C09C435FEACC3C00D51C438C
:101FC0003C60521C102AFFF42FAFBDE8F88F0000D0
:101FD000083C01404438024000300140000002400B
:101FE0000004024000080240000C024000100240C1
:101FF0000014024000180240001C02400069084022
:1020000000D0012070470AB1816170470904FBE7E5
:102010000148806870470000000000200248816885
:102020000278114481607047000000200B4810B511
:10203000016841F400710160016841F48061016050
:10204000016841F480710160032000F06FF80F20F7
:1020500000F006F800F024F8002010BD003C02401B
:1020600070B50D4D04464FF47A712878B1FBF0F04D
:102070000A490968B1FBF0F000F00AFB48B9102CDE
:1020800007D200222146501E00F030F800206C607C
:1020900070BD012070BD0000000000200C00002079
:1020A0000A4808B5016841F480410160006800F405
:1020B000804000900548001F016841F08051016098
:1020C000006800F08050009008BD000044380240D5
:1020D000002809DB00F01F02012191404009800027
:1020E00000F1E020C0F8001170470000F0B40E4B82
:1020F0001B680C46C3F30223C3F10705042D00D966
:102100000425191D072901D2002300E0DB1E01264A
:1021100006FA05F1491E214099409E40761E164060
:102120003143F0BC02F0FBBA0CED00E0064900F0D0
:10213000070208684FF6FF03184040EA0220034AEE
:1021400010430860704700000CED00E00000FA0545
:102150002DE9F0470E46050065D0DFF81481D8F868
:102160000000F7B200F00700B04207D288F8007014
:10217000D8F8000000F00700B04254D128683D4C68
:10218000810712D5400703D5206840F4E050206055
:102190002878000703D5206840F46040206020685C
:1021A000A96820F0F000084320602878C0072DD0EF
:1021B000304968680839012812D0022813D0032852
:1021C00011D00968890700292DDA216821F003015F
:1021D00001432160FFF71CFF814641F2883A0EE07F
:1021E00009688903EFE709688901ECE7FFF710FF49
:1021F000A0EB0901514502D90320BDE8F087206812
:10220000696800F00C00B0EB810FEFD1D8F8001036
:10221000404601F00701B14207D90770006800F09D
:102220000700B04201D00120E7E72878400705D534
:102230002068E96820F4E05008432060287800070F
:1022400006D52068296920F4604040EAC10020607A
:1022500000F038F82168084AC1F30311515CC84006
:102260000649086006480068FFF7FAFE0020C4E748
:10227000003C024008380240BE4900080C00002023
:10228000040000200448054900680968044AC1F3B5
:102290008221515CC84070470C0000200838024081
:1022A000CE4900080448054900680968044AC1F39A
:1022B0004231515CC84070470C0000200838024091
:1022C000CE490008154810B5006810F00C021448FB
:1022D00013D04110042A0FD0082A0ED10F4C241F0E
:1022E0002268236802F03F025B0207D52068C0F332
:1022F0008810A0FB010106E0084610BD2168C1F36B
:102300008811A1FB00010023FEF704F82168C1F346
:102310000141491C4900B0FBF1F010BD08380240F2
:102320000024F4002DE9F84F04006ED02078DFF887
:102330004C93C007A9F104054AD009F104000168D3
:10234000C1F38101012908D00068C0F3810002288F
:102350000AD1D9F80000400206D52868800337D595
:1023600060680028E1D033E06068B0F5803F10D0AD
:10237000B0F5A02F286810D020F48030286028689D
:1023800020F4802028606068A8B1FFF741FE06466F
:102390000DE0286840F48030F4E740F480202860A5
:1023A000F7E700BFFFF734FE801B642873D8286866
:1023B0008003F7D50CE0FFF72BFE064605E000BFD3
:1023C000FFF726FE801B6428F0D828688003F7D426
:1023D0002078DFF8AC8280074FF0000A3ED5A7488E
:1023E000001D016811F00C0F08D00068C0F38100D7
:1023F00002280BD1D9F80000400207D428688007D2
:1024000016D5E068012800D112E033E1E068B8B1E8
:102410000120C8F80000FFF7FBFD064605E000BFFD
:10242000FFF7F6FD801B0228C0D828688007F7D583
:102430002868216920F0F80040EAC10028600DE01A
:10244000C8F800A0FFF7E4FD064604E0FFF7E0FD52
:10245000801B02281FD828688007F7D4207800073F
:1024600022D5864F87486169703771B101210160BB
:10247000FFF7CEFD064604E0FFF7CAFD801B0228E9
:1024800009D838688007F7D50EE0C0F800A0FFF73C
:10249000BFFD064605E082E0FFF7BAFD801B02287B
:1024A0007DD838688007F7D42078400768D5DFF8F2
:1024B000CCB100270BF13C0BDBF80000C0000BD4C3
:1024C000DBF8001041F08051CBF80010DBF8000081
:1024D000012700F0805000906B4E3068C00510D48A
:1024E000306840F480703060FFF792FD009005E0A6
:1024F000FFF78EFD0099401A022850D83068C005B9
:10250000F6D55E4EA0686C3601280FD005283068DD
:1025100010D020F001003060306820F004003060FE
:10252000A068B8B1FFF774FD00900FE0306840F08C
:102530000100F4E740F004003060F7E7FFF768FDC2
:102540000099411A41F28830814266D8306880078C
:10255000F4D50EE0FFF75CFD009007E0FFF758FDB3
:102560000099411A41F28830814256D8306880077C
:10257000F4D42FB1DBF8001021F08051CBF800101B
:10258000A069C8B33D49091D0968C1F38101022949
:102590004AD00228504607D0C8F8600000E03CE06E
:1025A000FFF736FD04463BE04746C8F86000FFF7FA
:1025B0002FFD064605E000BFFFF72AFD801B02281D
:1025C0002BD828688001F7D4D4E907010843A16A11
:1025D0002E4A490802EB0141626A41EA821108432E
:1025E00094F82C1040EA0161C9F800100120386607
:1025F000FFF70EFD044606E03EE000BFFFF708FDD2
:10260000001B022809D828688001F7D534E000BFF4
:10261000FFF7FEFC001B022802D90320BDE8F88F5B
:1026200028688001F4D427E00128F7D0D9F8000009
:10263000E26900F4800191421CD1226A00F03F015E
:10264000914217D147F6C071626A0140B1EB821F17
:1026500010D1A26A4FF0FF3300F4403103EB520275
:10266000B1EB024F06D194F82C1000F07060B0EB83
:10267000016F01D00120D1E70020CFE704380240EC
:1026800000004742800E4742007000400000FFFFFC
:1026900010B5401EB0F1807F01D3012010BD4FF076
:1026A000E02460610F21601702F039F80020A0617A
:1026B00007202061002010BD7047704770B590F86A
:1026C0003C20012A32D0012480F83C40022280F8CC
:1026D0003D2003685A689D6822F070060A683243FC
:1026E0005A60134B02689A4214D0B2F1804F11D055
:1026F000104B9A420ED0104B9A420BD00F4B9A427D
:1027000008D00F4B9A4205D00E4B9A4202D00E4B86
:102710009A4204D1496825F080031943916080F8FA
:102720003D40002180F83C10084670BD022070BD7D
:10273000000001400004004000080040000C004080
:1027400000040140004001400018004010B50400A2
:1027500003D094F83D0010B107E0012010BD002027
:1027600084F83C00204600F01FF8022084F83D0069
:10277000211D206801F0D8FC012084F8460084F86F
:102780003E0084F83F0084F8400084F8410084F85B
:10279000420084F8430084F8440084F8450084F83B
:1027A0003D00002010BD000010B586B00446142185
:1027B0006846FDF74FFE2C48226800232B498242D1
:1027C0000ED1086840F0010008600868002200F09F
:1027D0000100059011461920FFF788FC192032E00E
:1027E0002248001FB2F1804F0AD0214B9A422ED1CD
:1027F000086840F480300860086800F4803030E0F9
:10280000016841F001010160006800F001000590DD
:1028100016481438016841F00101016000686946FA
:1028200000F00100059002200090CDE90103012095
:10283000CDE903300F48FFF7E9FA002211461C20CA
:10284000FFF754FC1C20FFF743FC06B010BD0A49FB
:102850008A42FAD1016841F080010160006800F00D
:1028600080000590F1E7000000000140443802407C
:102870000040014000000240001C004090F83D1064
:10288000012901D001207047022180F83D10006825
:102890001149884214D0B0F1804F11D00F498842BD
:1028A0000ED00F4988420BD00E49884208D00E49FD
:1028B000884205D00D49884202D00D49884204D192
:1028C000816801F00701062903D0016841F0010188
:1028D000016000207047000000000140000400403B
:1028E00000080040000C004000040140004001408E
:1028F0000018004090F83D10012901D001207047D8
:10290000022180F83D100168CA6842F00102CA60E5
:1029100000681149884214D0B0F1804F11D00F499E
:1029200088420ED00E4988420BD00E49884208D00A
:102930000D49884205D00D49884202D00C49884291
:1029400004D1816801F00701062903D0016841F034
:1029500001010160002070470000014000040040B8
:1029600000080040000C004000040140004001400D
:102970000018004070B5044690F83C00002501287E
:1029800017D0012684F83C60022084F83D002068BE
:10299000826822F0770222F47F4282600868502821
:1029A00038D00DDC20284FD005DC90B3102811D191
:1029B0004AE0022070BD302846D040280AD13BE0D2
:1029C00060282FD070280DD0B0F5805F03D0B0F50F
:1029D000005F12D0012584F83D60002084F83C009F
:1029E000284670BDCB68D1E90121206801F011FCB7
:1029F0002068816841F0770109E0CB68D1E90121C5
:102A0000206801F006FC2068816841F48041816003
:102A1000E1E719E0CA684968206801F0CFFC50215D
:102A2000206806E0CA684968206801F0D8FC602187
:102A3000206801F0F8FBCEE7CA684968206801F019
:102A4000BDFC40212068F4E7226801461046F0E70B
:102A50002DE9F0410D46040003D094F83D0018B173
:102A600008E00120BDE8F081002084F83C00204609
:102A700000F040F8022084F83D002068816844F2AC
:102A8000070291438160211D206801F04DFB2268FF
:102A900090689169166A2B68AF69034340F203306E
:102AA000814341EA0721A868EF6908434FF6FC41DA
:102AB0008843E96840EA0720014328692F6A00013A
:102AC00040EA0730084369686D6926F0AA0646EABD
:102AD0000515294393602268906154F8460B016202
:102AE000012004F81F09E0752076E0762077A075B4
:102AF0000020B7E710B586B0044614216846FDF7FC
:102B0000A9FC2268214C002121480223A2421BD1AA
:102B10001F4A1032146844F004041460126802F072
:102B200004020592026842F008020260006800F0A8
:102B3000080005904FF440500090CDE90131CDE9F7
:102B40000313694613481DE0134CA2421CD1104ADE
:102B50001432146844F002041460126802F0020295
:102B60000592026842F004020260006800F004006E
:102B70000590C0200090CDE901310320CDE903107C
:102B800069460648FFF742F906B010BD000800404C
:102B900030380240000C02400004014000080240AE
:102BA00070B590F83E60044690F83F5090F842307F
:102BB00090F84320022021B104290ED0012E1BD110
:102BC00014E0012E18D1012B16D184F83E0084F8B0
:102BD000420001220021206820E0012D0CD1012AB1
:102BE0000AD184F83F0084F8430014E0012D03D19A
:102BF000012B01D1012A01D0012070BD84F83E00D3
:102C000084F83F0084F8420084F843000122002148
:102C1000206801F0F1FA01220421206801F0ECFAA9
:102C20002068016841F001010160002070BD70471B
:102C30002DE9F04104460068C66805694FF00007B9
:102C4000A90713D5B10711D5F91E0161012020771D
:102C5000206880698007204602D0FFF7E8FF04E083
:102C600000F0A8F8204600F03AF92777680716D553
:102C7000700714D521686FF00400086102202077E6
:102C80002068806910F4407F204602D0FFF7CFFF14
:102C900004E000F08FF8204600F021F9277728079C
:102CA00015D5300713D521686FF00800086104209E
:102CB00020772068C0698007204602D0FFF7B7FF61
:102CC00004E000F077F8204600F009F92777E806DD
:102CD00016D5F00614D521686FF0100008610820A1
:102CE00020772068C06910F4407F204602D0FFF7AB
:102CF0009EFF04E000F05EF8204600F0F0F8277731
:102D0000E80708D0F00706D021686FF001000861DD
:102D1000204600F049F9280608D5300606D5216876
:102D20006FF0800008612046FFF7C6FC680608D5F2
:102D3000700606D521686FF040000861204600F05B
:102D4000F7F9A8060AD5B00608D521686FF020006B
:102D500008612046BDE8F041FFF7AFBCBDE8F08157
:102D600010B586B0044614216846FDF773FB0E4982
:102D70002068884215D10D480021026842F01002F7
:102D80000260006800F010000590402000900220D2
:102D9000CDE901010320CDE9031069460448FFF79E
:102DA00035F806B010BD0000004001403038024048
:102DB00000100240704770B5044690F83C000026B1
:102DC0000D4601280FD0012084F83C006AB1042A86
:102DD0001DD0082A2FD00C2A3FD00126002084F8CD
:102DE0003C00304670BD022070BD206801F024FA1E
:102DF0002068816941F0080181612068816921F0C2
:102E000004018161206881692A69114311E0206809
:102E100001F042FA2068816941F400618161206813
:102E2000816921F480618161206881692A6941EAB0
:102E300002218161D2E7206801F064FA2068C1694B
:102E400041F00801C1612068C16921F00401C1613C
:102E50002068C1692A69114311E0206801F086FAEF
:102E60002068C16941F40061C1612068C16921F431
:102E70008061C1612068C1692A6941EA0221C1619A
:102E8000ACE710B5040003D094F83D0010B107E0A2
:102E9000012010BD002084F83C00204600F01EF800
:102EA000022084F83D00211D206801F03DF9012039
:102EB00084F8460084F83E0084F83F0084F840001F
:102EC00084F8410084F8420084F8430084F8440008
:102ED00084F8450084F83D00002010BD704770471D
:102EE00010B50446022249B104290ED0082913D096
:102EF00094F84100012816D0012010BD94F83E003E
:102F00000128F9D184F83E200FE094F83F00012811
:102F1000F2D184F83F2008E094F840000128EBD17A
:102F200084F8402001E084F841200122206801F06B
:102F300063F916492068164A884201D0904203D1AD
:102F4000436C43F4004343642068884213D0B0F1DB
:102F5000804F10D00F4988420DD00F4988420AD0C7
:102F60000E49884207D0904205D00D49884202D0D0
:102F70000C49884204D1816801F00701062903D079
:102F8000016841F001010160002010BD0000014016
:102F9000000401400004004000080040000C004014
:102FA000004001400018004070B5064600685C49CA
:102FB00000255C4C884214D100F066FB2078401C50
:102FC000C0B2207028280CD32570FEF7ADFE6080BB
:102FD000A1880844A080FEF7B1FEE0802189084462
:102FE00020813068B0F1804F7DD16078401CC0B244
:102FF0006070282877D36570B4F9020000EE100ADB
:10300000B8EEC00A84ED0D0A94ED0E3A84ED0F3A45
:10301000D4ED0B0A30EEC01A84ED0E1AB4F9060096
:1030200000EE100A4048B8EEC00A84ED130AD4ED51
:10303000141AC4ED151AD4ED110A30EEC00A84ED4D
:10304000140AD4ED042AF0EEE20A10EE901ADFED35
:10305000370A814206DD94ED102A32EE012A84ED12
:10306000102A01E0C4ED100A94ED072AF0EEC23AEE
:1030700013EE901A814203DDD4ED160A70EE800A39
:10308000C4ED160AD4ED030AD4ED103A60EE810ABD
:1030900031EE431A42EEA30AD4ED052A42EE810A2C
:1030A000C4ED0C0A94ED061AD4ED162A21EE001A8E
:1030B00030EE610AD4ED081A02EE221A01EE801AEF
:1030C00084ED121A94ED090AF4EEC00AF1EE10FA3A
:1030D00001DD84ED0C0A94ED0A0AB4EEC01AF1EE9B
:1030E00010FA03DD00E019E084ED120A94ED0C0AF9
:1030F000B1EE400ABDEEC00A10EE100A40B200F078
:10310000C9FC94ED120ABDE87040B1EE400ABDEE74
:10311000C00A10EE100A40B200F0DEBC70BD000024
:103120000000014010000020ACC52737000000005F
:103130007047704770470000F8B50168044608689A
:10314000CA684B6910F00F0F4FF0000559D003F01B
:10315000010602F49077374365D0C10705D0D10549
:1031600003D5616C41F001016164410705D5D907C0
:1031700003D0616C41F002016164810705D5D90774
:1031800003D0616C41F004016164010707D502F0CE
:103190002001314303D0616C41F008016164616C2E
:1031A00000293AD0800604D5900602D5204601F0C9
:1031B00056F920684069616CC0F38010090700D49B
:1031C00060B3204601F024F920684069400621D50B
:1031D0002068143050E8001F21F0400140E8001240
:1031E000002AF5D1E06BA8B172490165E06BFEF7EA
:1031F000FAFD002811D0E06B016D01B0BDE8F04090
:10320000084783060FD593060DD52046BDE8F84044
:1032100001F025B92046FFF78DFFF8BD2046FFF7E6
:1032200089FF6564F8BD266B2023012E7ED1C6067A
:103230007CD5D6067AD508684868009048694FF072
:10324000020640064DD5E26B106840684FF4807767
:103250000004000C3AD0A18D814237D9E085D069B5
:10326000B8422DD020680C3050E8001F21F4807146
:1032700040E80012002AF5D12068143050E8001F01
:1032800021F0010140E80012002AF5D12068143035
:1032900050E8001F21F0400140E80012002AF5D15B
:1032A00084F84230256320680C3050E8001F21F07C
:1032B000100140E80012002AF5D1E06BFEF74AFD4C
:1032C0006663A08DE18D401A81B206E0A18D814236
:1032D000A8D1D069B842A5D166632046FFF729FF7F
:1032E000F8BDA08DE18D401A81B2E08D0028F7D0A5
:1032F0000029F5D020680C3050E8002F22F490729D
:1033000040E80027002FF5D12068143050E8002F46
:1033100022F0010240E80027002FF5D184F8423066
:10332000256320680C3050E8002F00E006E022F012
:10333000100240E80023002BF3D1CDE705062BD582
:10334000150629D594F841002128C9D1A068B0F507
:10335000805F01D12069B0B1206A411C21622168DF
:1033600000784860E08C401E0004000CE084B7D177
:103370002068C16821F08001C1602068C16841F007
:103380004001C160F8BD206A0088C0F308004860B1
:10339000206A801C2062E5E74006F3D55006F1D58F
:1033A000CA68204622F04002CA6084F8413000F02A
:1033B00017F9F8BD0344000870B5040004D094F870
:1033C0004100002510B106E0012070BD84F8405096
:1033D000204600F023F8242084F841002068C168CA
:1033E00021F40051C160204601F09AF8206801697B
:1033F00021F4904101612068416921F02A01416175
:103400002068C16841F40051C1606564202084F8DF
:10341000410084F842006563002070BDF0B587B0BC
:10342000044614216846FDF715F82A4F2368002248
:1034300029490224032507262848BB4221D1264BCF
:1034400014331F6847F010071F601B6803F0100358
:1034500005930B6843F001030B60096802AB01F0B0
:10346000010105916902CDE9001483E86400694611
:10347000FEF7CCFC002211462520FEF737FE252062
:1034800023E0174FBB4222D1134B10331F6847F480
:1034900000371F601B6803F4003305930B6843F08B
:1034A00001030B60096802AB01F0010105910C21D9
:1034B000CDE9001483E864006946FEF7A7FC00220A
:1034C00011462620FEF712FE2620FEF701FE07B069
:1034D000F0BD000000100140303802400000024002
:1034E0000044004090F84230202B01D00220704769
:1034F00021B11AB10023036301F098B8012070478D
:1035000030B40B4A016891420FD10A4A0021116080
:1035100009490122094C8A704A780B78A354521C3D
:103520004A7030BC0122FFF7DDBF30BC704700009D
:1035300000440040241C004078000020D0060020F9
:103540002DE9F843044690F84100984616460D468A
:10355000202802D00220BDE8F88385B17EB100208A
:103560006064212084F84100FEF752FDA684814664
:10357000E684A0682027B0F5805F02D003E0012038
:10358000E9E7206910B12E4600250EE000260CE088
:103590008021204601F065F8A8B9C6B116F8010BE4
:1035A00021684860E08C401EE084E08C4B464FF080
:1035B0000002CDF800800028EAD14FF040012046FB
:1035C00001F04FF840B184F841700320C3E735F8AB
:1035D000020BC0F30800E3E784F841700020BAE76B
:1035E0007047FEE770B5154D01212846FEF706FD30
:1035F000134C022120702846FEF700FD6070042164
:103600002846FEF7FBFCA07008212846FEF7F6FCD2
:10361000E07010212846FEF7F1FC20712021284699
:10362000FEF7ECFC607140212846FEF7E7FCA07134
:1036300080212846FEF7E2FCE07170BD000C0240DC
:103640007000002010B50F4C02212046FEF7D6FC7A
:1036500080B104212046FEF7D1FC68B10821204644
:10366000FEF7CCFC50B110212046FEF7C7FC38B164
:10367000002010BD012010BD022010BD032010BD90
:10368000042010BD0010024010B50A4C2078401CE8
:10369000C0B2207014280CD3002020706078A07075
:1036A000FFF7D0FF6070002803D1A078002800D079
:1036B000E07010BD6C000020F0B587B014216846A2
:1036C000FCF7C8FE3B480025016841F0100101608D
:1036D000016801F010010591016841F0800101606D
:1036E000016801F080010591016841F00401016069
:1036F000016801F004010591016841F001010160D8
:10370000016801F001010591016841F002010160C9
:10371000016801F002010591016841F008010160B2
:103720000068254E00F0080005900122382130463F
:10373000FEF769FC214F002243F6F4713846FEF78C
:1037400062FC1E20CDE900050124694602941C4854
:10375000FEF75CFB3820CDE9000469463046CDE930
:103760000245FEF753FB0420CDE9000469463846C4
:10377000CDE90245FEF74AFB4FF47060009011203E
:103780000394CDE9010569463846FEF73FFB43F255
:10379000F0008DE83100694638460394FEF736FBA9
:1037A000FF20CDE90005694606480295FEF72EFB8D
:1037B00007B0F0BD3038024000080240000402406B
:1037C00000100240000C02400B4810B5094901608E
:1037D00000214FF6FF724160C0E902120161816170
:1037E000FEF7B4FF002803D0BDE81040FEF7B0BAE2
:1037F00010BD0000001C0040E401002010B586B0A0
:1038000000241748009401940294039404941349EB
:103810000594016040F28F61C0E901146321C0E9A1
:10382000031444618461FEF791FF08B1FEF790FA3A
:103830004FF48050009069460948FFF79BF808B1A3
:10384000FEF786FA049404A905480594FEF736FFAE
:10385000002801D0FEF77CFA06B010BD0000014040
:103860007C00002010B586B0002416480094019416
:103870000294039404944FF080410594016040F257
:103880008F61C0E901146321C0E903148461FEF76C
:103890005DFF08B1FEF75CFA4FF480500090694676
:1038A0000848FFF767F808B1FEF752FA049404A934
:1038B00004480594FEF702FF002801D0FEF748FAFD
:1038C00006B010BDC400002010B58CB0242168469D
:1038D000FCF7C0FD00241648099414490A94C0E975
:1038E00000144FF6FF71C0E90241046184610320B6
:1038F000CDE900040120CDE902040494CDE905409E
:10390000079469460A480894FFF7A2F808B1FEF741
:103910001FFA099409A906480A94FEF7CFFE002869
:1039200001D0FEF715FA0CB010BD000000080040F1
:103930000C01002010B58CB024216846FCF78AFDEC
:1039400000241648099414490A94C0E900144FF65B
:10395000FF71C0E902410461446184610320CDE943
:1039600000040120CDE902040494CDE90540079448
:1039700069460A480894FFF76BF808B1FEF7E8F9C2
:10398000099409A905480A94FEF798FE002801D079
:10399000FEF7DEF90CB010BD000401405401002018
:1039A00010B58CB000240794089409941C21684633
:1039B0000A94FCF74FFD1948174901605321C0E9EB
:1039C00001146321C0E903148461FEF7BFFE08B14E
:1039D000FEF7BEF94FF48050079007A90F48FEF795
:1039E000C9FF08B1FEF7B4F90C48FFF74AFA08B16D
:1039F000FEF7AEF96020CDE9000402940422694686
:103A000006480494FFF7D7F908B1FEF7A1F9034877
:103A1000FFF7A6F90CB010BD004001409C0100204A
:103A20000C4810B50A4901604FF4E13141600021B2
:103A300081600C22C160C0E904128161C161FFF79D
:103A4000BBFC002803D0BDE81040FEF781B910BDD3
:103A5000001001402C0200200C4810B50A490160FA
:103A60004FF416514160002181600C22C160C0E911
:103A700004128161C161FFF79FFC002803D0BDE8FB
:103A80001040FEF765B910BD0044004074020020EC
:103A9000FEE7000070B50F4D04000BD40122102189
:103AA0002846FEF7B0FA002220212846FEF7ABFA9E
:103AB000A0B20BE0002210212846FEF7A4FA012252
:103AC00020212846FEF79FFA604280B2BDE8704090
:103AD00000F0BCBA0004024070B50F4D04000BD4D6
:103AE000012240212846FEF78EFA00228021284636
:103AF000FEF789FAA0B20BE0002240212846FEF72B
:103B000082FA012280212846FEF77DFA604280B2C7
:103B1000BDE8704000F0A0BA00040240FEE70000DB
:103B200010B50021074C0A46002004EBC1131A54BB
:103B3000401CC0B28028FAD3491CC9B20829F3D36B
:103B400010BD0000BC020020F0B50B4424E0044688
:103B500085181DE07F2C19D8002917DB3F2915DCBB
:103B6000CE1701EB56764FEAE60C0D4F26F007060E
:103B700007EBCC172744A1EB060E97F800C00126EF
:103B800006FA0EF62CEA060C87F800C0641C24B274
:103B9000A542DFDC491C09B28B42D8DCF0BD000035
:103BA000BC02002010B5012000F016FABDE810405C
:103BB000012000F019BA70B500240546802626FAC7
:103BC00004F0284000F010FA0220FEF79CF80120D3
:103BD00000F002FA0220FEF796F8002000F0FCF94F
:103BE000641CE4B2082CEAD30220FEF78CF8012012
:103BF00000F0F2F90220FEF786F8002000F0ECF960
:103C0000BDE870400220FEF77EB810B5012000F03C
:103C1000EBF90220FEF777F8012000F0DDF9022031
:103C2000FEF771F8002000F0DFF90220FEF76BF8D4
:103C3000BDE81040002000F0CFB910B5002000F022
:103C4000D3F90220FEF75FF8012000F0C5F9022049
:103C5000FEF759F8BDE81040012000F0C5B910B5D5
:103C6000FFF7A0FFAE2000F0C7F9D52000F0C4F99F
:103C7000802000F0C1F9A82000F0BEF93F2000F03C
:103C8000BBF9D32000F0B8F9002000F0B5F94020CE
:103C900000F0B2F9A12000F0AFF9C82000F0ACF9B3
:103CA000DA2000F0A9F9122000F0A6F9812000F036
:103CB000A3F9CF2000F0A0F9D92000F09DF9F12060
:103CC00000F09AF9DB2000F097F9302000F094F929
:103CD000A42000F091F9A62000F08EF98D2000F0CC
:103CE0008BF9142000F088F9AF2000F085F9FFF778
:103CF00017FFBDE8104000F05BB90FB470B5C0B05D
:103D000014460D46064648AA68464799FCF77AFBD2
:103D100023466A462946304600F094F840B070BC0D
:103D20005DF814FB10B50C4640F0B00000F064F9EB
:103D3000102040EA141000F05FF904F00F00BDE815
:103D4000104000F059B9000008B5082B0DD0062B23
:103D50000AD10A4B02EB420203EB4202C03A009244
:103D60000823062200F00EF808BD054B03EB0212F3
:103D7000A2F50072102300920822F3E7C64F000854
:103D8000D64900082DE9F04F1F4616460C468246DC
:103D90000025FFF7D9FE7F1EF81707EB50700121B1
:103DA000DFF89CB001EBE00745E000203FE000BFFA
:103DB0000AEB00037F2B38D8E11704EB5171CA10CE
:103DC00021F00701611A002C03DA521E083112B2E9
:103DD00009B202EB0509B9F1070F10D80BEBC91EA8
:103DE0001EF8032015FB06F8DDF824C0844418F8FB
:103DF0000CC00CFA01FC42EA0C020EF8032009F197
:103E00000102072A11D80BEBC91202EB030898F83C
:103E1000803015FB06FC099AC1F1080102441CF828
:103E20000220CA40134388F88030401CC0B2B04220
:103E3000BED36D1CEDB2AF42B7DCBDE8F08F000021
:103E4000BC0200202DE9FF4F002483B09B46904622
:103E50002546A246DFF850919EE0100610D4039844
:103E60008DF80420641C2844A4B28DF805A000B28B
:103E70005B460499FFF768FF05EB0B0085B28BE00A
:103E80000620B0EB521F0ED1641CA0B28DF80420A6
:103E900018F80010002974D08DF80510401C84B269
:103EA0008DF806A03CE00E20B0EB121F16D1641C6A
:103EB000A0B28DF8042018F80010002971D0401C21
:103EC00080B28DF8051018F80010002969D08DF81F
:103ED0000610401C84B28DF807A021E01E20B0EB34
:103EE000D20F1FD1641CA0B28DF8042018F8001066
:103EF000002956D0401C80B28DF8051018F800102B
:103F000000294ED0401C80B28DF8061018F8001021
:103F1000002946D0401C8DF8071084B28DF808A007
:103F2000002609E0641CA4B236E0384601A9FCF77B
:103F3000B9FA68B1761CB6B206EB860000EB461102
:103F400001EB0900074619A1FCF7ACFA0028ECD1F7
:103F5000BBF1080F03D0BBF1060F1DD112E006EB39
:103F6000860000EB461101EB0900401D009003980C
:103F70001023284400B21A460499FFF703FF1035B6
:103F800009E00EE003980623284400B23F2204997A
:103F9000FFF7DAFEAD1DADB218F80420002A7FF459
:103FA0005CAF07B0BDE8F08F0052000800000000D1
:103FB00070B5084D002400212046FFF7B3FE05EB45
:103FC000C410802100F029F8641CE4B2082CF2D35C
:103FD00070BD0000BC02002002464FF48061014821
:103FE000FEF711B80004024002464FF40061014898
:103FF000FEF709B80004024010B50446FFF705FEBD
:104000007820FFF7D8FD0020FFF7D5FD2046FFF709
:10401000D2FDBDE81040FFF710BE70B50D46064654
:10402000FFF7F3FD7820FFF7C6FD4020FFF7C3FD43
:10403000002404E0305DFFF7BEFD641CE4B2AC4236
:10404000F8D3BDE87040FFF7F8BD000001494863B0
:10405000704700000040014001498863704700003C
:104060000040014070477047FDF7D8BF30B593B0AE
:1040700030216846FCF7EEF914210CA8FCF7EAF9A8
:104080001D480025016841F080510160006800F082
:10409000805011901948016841F480410160006826
:1040A000022400F48040119001200090000401904F
:1040B0008001CDE9064008AA0420A82182E8130067
:1040C0000B906846FEF72EF908B172B6FEE70CA910
:1040D0000F2081E831004FF4A0500F904FF4805032
:1040E000109005210CA8FEF733F8002801D072B615
:1040F000FEE713B030BD00004038024000700040C1
:104100000248016841F470010160704788ED00E0E9
:104110000148FEF78DBD00007C0000200148FEF73D
:1041200087BD0000C4000020F0B50268274B284D71
:10413000284E294F294C4FF0804C984209D06045B9
:1041400007D0A84205D0B04203D0B84201D0A04267
:1041500004D122F0700E4A6842EA0E0298421BD047
:10416000604519D0A84217D0B04215D0B84213D03C
:10417000A04211D01A4DA8420ED01A4DA8420BD021
:10418000194DA84208D0194DA84205D0184DA84293
:1041900002D0184DA84203D122F44075CA682A43C0
:1041A0004D6922F080022A438D68C5620D688562E0
:1041B000984201D0A04201D109690163016841F030
:1041C00004010160012141610260F0BD0000014075
:1041D0000004004000080040000C004000040140C2
:1041E00000400140004401400048014000180040E8
:1041F000001C00400020004010B501F01F03012109
:10420000046A99408C430462016A9A401143016236
:1042100010BD10B5846842EA032224F47F440A43A7
:104220002243826010BD826822F070020A4342F08D
:104230000701816070470000F0B5036A026A22F04E
:104240000102026242688469124E24F073050C6810
:104250002C4323F002058B682B430D4DA84201D05F
:10426000B04205D123F00807CB683B4323F0040399
:10427000A84201D0B04205D14D6922F440721543E5
:104280008A692A4342608461496841630362F0BDE0
:104290000000014000040140F0B5026A036A23F007
:1042A00010030362436884690D6824F4E64444EA19
:1042B00005248D6822F0200242EA05120F4D104EAF
:1042C000A84201D0B04206D1CF6822F0800242EA73
:1042D000071222F04002A84201D0B04207D14D6936
:1042E00023F4406343EA85038D6943EA8503436011
:1042F0008461496881630262F0BD000000000140F2
:1043000000040140F0B5026A036A23F4807303627B
:104310004368C46922F4007224F073050C68124EDD
:104320002C438D6842EA05220E4DA84201D0B042CE
:1043300006D1CF6822F4006242EA072222F48062AA
:10434000A84201D0B04207D14D6923F4405343EA5B
:1043500005138D6943EA05134360C4614968C1636D
:104360000262F0BD000001400004014030B5046A63
:10437000026A22F4805202624268C3690D6823F423
:10438000E64343EA05238D6824F4005444EA0534E7
:10439000084DA84202D0084DA84204D14D6922F42C
:1043A000804242EA85124260C36149680164046246
:1043B00030BD0000000001400004014010B5036A58
:1043C000046A24F001040462846924F0F00444EADD
:1043D000021423F00A020A438461026210BD10B580
:1043E000036A046A24F010040462846923F0A003C1
:1043F00024F4704444EA023243EA0111826101620A
:1044000010BD10B5806B0021C185FEF793FE10BD75
:1044100001680C3151E8002F22F4907241E800232A
:10442000002BF5D10168143151E8002F22F0010270
:1044300041E80023002BF5D1016B012909D1016866
:104440000C3151E8002F22F0100241E80023002B2C
:10445000F5D1202180F8421000210163704708B592
:1044600090F84210222901D0022008BD82684FF442
:1044700080539A4201D1016921B1816A9A421BD0CD
:104480004AB10AE00268816A5268C2F308020A80EF
:10449000816A891C08E0026972B10268526802F000
:1044A0007F020A70816A491C8162C18D491E09041C
:1044B000090CC18503D01BE002685268F1E701686E
:1044C000CA6822F02002CA600168CA6822F48072B9
:1044D000CA6001684A6922F001024A61202180F81D
:1044E000421000214163026B012A03D0FFF708F854
:1044F000002008BD016301680C3151E8002F22F053
:10450000100241E80023002BF5D101680A68D206A9
:1045100002D50A6849680091818DFEF70AFEE7E737
:1045200070B5044600680169E26821F44051114306
:1045300001612169A068E269084361691143084388
:104540002168CA6849F20C639A430243CA60206832
:104550004169A26921F440711143416131492068E8
:10456000884202D03049884202D1FDF79BFE01E02B
:10457000FDF788FEE2690023192164253226B2F591
:10458000004F626828D0A0FB0101930F9200FBF757
:10459000C1FE0146B0FBF5F06FF01802504301EB8D
:1045A000800006EB0010B0FBF5F000F0F002B1FB6C
:1045B000F5F002EB0012B1FBF5F06FF01803584371
:1045C00001EB800006EB0010B0FBF5F000F00F00EF
:1045D00021681044886070BDA0FB010192185B4106
:1045E000FBF798FE0146B0FBF5F00201B1FBF5F0D8
:1045F0006FF01803584301EB800006EBC000B0FBDE
:10460000F5F000F0F80002EB4002B1FBF5F0584382
:1046100001EB800006EBC000B0FBF5F000F00700F6
:10462000D6E700000010014000140140816282853D
:10463000C28500214164222180F84210016921B124
:104640000168CA6842F48072CA6001684A6942F02F
:1046500001024A610068C16841F02001C160002088
:1046600070472DE9F843984617460D460446089EC4
:1046700024E0701C22D0FDF7CBFCA0EB0800B04278
:104680001AD8CEB12068C168490717D5802D15D03A
:10469000402D13D00168C94309070FD401680025D4
:1046A000406800902046FFF7B3FE0820606484F85D
:1046B00040500120BDE8F8830320FBE72068006834
:1046C00035EA000004D00020B842D2D00020F1E743
:1046D0000120F9E70148FEF72FBD00002C02002061
:1046E0000148FEF729BD000074020020FEE703B474
:1046F00001984100009850EAC12018BF04204A0DDB
:1047000018BF40F0010040F2FF72B2EB515F08BFEA
:1047100040F00200012808BF052002B070470907D9
:10472000090E002804DB00F1E02080F80014704737
:1047300000F00F0000F1E02080F8141D70473038C1
:104740000A2801D2012070470020704770B52E4D15
:10475000A878002856D02D4800680F2852D92C4C34
:104760002046227841788078722A04D0712A16D0A7
:10477000622A2BD02EE065292CD164282AD1244826
:1047800024A11438FBF750FE214932231422143996
:104790002248FEF7D5FE012000F05CF826E06929EA
:1047A00018D1612816D1E0786F2813D118481CA1C0
:1047B0001438FBF739FE16493223142214391748EE
:1047C000FEF7BEFE012000F039F80FE0652901D1A7
:1047D000692810D014A10E481438FBF725FE0C49A7
:1047E0003223142214390D48FEF7AAFE0021A970C5
:1047F00008466A7803E00FA1EDE72154401C90427F
:10480000FBDB697070BD000078000020241C0040B4
:10481000D00600207265640D0A00000074020020BA
:104820007169616F0D0A00006572726F72210D0A65
:10483000000000006265690D0A000000044B08B129
:10484000002200E0012220211846FDF7DCBB000019
:1048500000080240044B08B1002200E001220821B8
:104860001846FDF7D0BB00000008024008B5FDF770
:10487000DDFBFFF7FBFBFEF71FFFFEF7BFFFFFF7B8
:10488000CFF8FFF78DF8FFF71FF8FFF753F8FEF7A3
:10489000E9FFFEF799FFFFF7DFF8FFF7E0F90021E6
:1048A0001C48FEF71DFB04211A48FEF719FB1A49A4
:1048B0000020486388633C211848FEF771F93C21C9
:1048C0001748FEF76DF91748FEF714F81648FEF77B
:1048D00011F8012215491648FEF704FE1548FDF7A8
:1048E000CDFF154CFEF77EFEFFF730FF207800214C
:1048F000009012A306220846FFF7FFF960780090A7
:1049000011A3062208210020FFF7F7F9FFF750FB5B
:10491000E8E700009C010020004001405401002015
:104920000C0100207C000020C40000207800002042
:1049300074020020E40100207000002068756964A2
:10494000755B305D3D25640068756964755B315D3C
:104950003D25640010B500290AD00878002807D04A
:1049600005487844FBF79EFD002801D0002010BDCB
:104970000248784410BD0000BE0A0000B60A0000DC
:1049800010B500290AD00878002807D005487844D7
:10499000FBF788FD002801D0002010BD02487844B4
:1049A00010BD0000AE0A0000A60A00004FF04070E3
:1049B000E1EE100A7047FCF7E2B9FCF717BB000004
:1049C00000000000000001020304060708090000BF
:1049D00000000102030400000000000000000000CD
:1049E000000000000000000000F8000000000000CF
:1049F00000333000000000160E00160E000000000C
:104A000000000000000040C07840C0784000043F33
:104A100004043F040400007088FC08300000001803
:104A200020FF211E0000F008F000E0180000002127
:104A30001C031E211E0000F00888700000001E21CB
:104A4000232419272110000000160E00000000008A
:104A5000000000000000000000E018040200000058
:104A600000071820400000020418E0000000004089
:104A7000201807000000404080F080404000020203
:104A8000010F01020200000000F00000000001011F
:104A9000011F01010100000000000000000000B043
:104AA0007000000000000000000000000000000195
:104AB00001010101010100000000000000000030C0
:104AC000300000000000000000008060180400605A
:104AD00018060100000000E010080810E000000FB8
:104AE000102020100F00001010F80000000000201F
:104AF000203F202000000070080808887000003067
:104B0000282422213000003008888848300000180E
:104B1000202020110E000000C02010F80000000727
:104B20000424243F240000F808888808080000199D
:104B3000212020110E0000E0108888180000000FCE
:104B4000112020110E0000380808C83808000000A5
:104B5000003F000000000070880808887000001CFA
:104B6000222121221C0000E010080810E0000000B3
:104B7000312222110F00000000C0C0000000000020
:104B8000003030000000000000C0C0000000000045
:104B900080B070000000000080402010080000017C
:104BA00002040810200040404040404040000404FF
:104BB00004040404040000081020408000000020C9
:104BC000100804020100007048080808F000000006
:104BD000003036010000C030C828E810E000071897
:104BE000272423140B000000C038E0000000203C04
:104BF00023020227382008F8888888700000203FA8
:104C0000202020110E00C0300808080838000718BE
:104C100020202010080008F808080810E000203FB5
:104C2000202020100F0008F88888E8081000203F96
:104C300020202320180008F88888E8081000203F6A
:104C4000200003000000C0300808083800000718E2
:104C50002020221E020008F808000008F808203F63
:104C6000210101213F20000808F808080000002069
:104C7000203F2020000000000808F8080800C0803D
:104C800080807F00000008F888C028180800203FB6
:104C900020012638200008F8080000000000203F0E
:104CA00020202020300008F8F800F8F80800203F05
:104CB000003F003F200008F830C00008F808203FFF
:104CC000200007183F00E01008080810E0000F104F
:104CD000202020100F0008F808080808F000203FE6
:104CE000210101010000E01008080810E0000F1881
:104CF000242438504F0008F8888888887000203FA6
:104D00002000030C302000708808080838000038A4
:104D1000202121221C00180808F8080818000000AB
:104D2000203F2000000008F808000008F808001FD5
:104D3000202020201F000878880000C838080000C4
:104D400007380E010000F80800F80008F800033CDE
:104D50000700073C030008186880806818082030A6
:104D60002C03032C30200838C800C8380800000085
:104D7000203F2000000010080808C838080020382C
:104D8000262120201800000000FE02020200000080
:104D9000007F40404000000C30C0000000000000D8
:104DA00000010638C00000020202FE0000000040C0
:104DB00040407F0000000020100804081020000080
:104DC00000000000000000000000000000008080E3
:104DD00080808080808000020408000000000000C5
:104DE00000000000000000008080808000000019AA
:104DF000242222223F2008F8008080000000003F8B
:104E0000112020110E000000008080800000000EA4
:104E1000112020201100000000808088F800000E82
:104E2000112020103F200000808080800000001FA3
:104E3000222222221300008080F088888818002017
:104E4000203F202000000000808080808000006BD8
:104E500094949493600008F8008080800000203FC4
:104E6000210000203F2000809898000000000020D2
:104E7000203F20200000000000809898000000C023
:104E80008080807F000008F8000080808000203F44
:104E900024022D302000000808F800000000002047
:104EA000203F202000008080808080808000203F84
:104EB00020003F20003F0080800080800000002014
:104EC0003F2100203F200000808080800000001FE4
:104ED000202020201F00808000808000000080FFB4
:104EE000A12020110E000000008080808000000EB4
:104EF000112020A0FF808080800080808000202002
:104F00003F2120000100000080808080800000336D
:104F1000242424241900008080E080800000000008
:104F2000001F202000008080000000808000001F03
:104F3000202020103F2080808000008080800001A1
:104F40000E300806010080800080008080800F30D5
:104F50000C030C300F000080800080808000002057
:104F6000312E0E3120008080800000808080808182
:104F70008E701806010000808080808080000021F3
:104F8000302C2221300000000000807C0202000052
:104F90000000003F404000000000FF000000000053
:104FA0000000FF0000000002027C800000000040C2
:104FB000403F000000000080404080000080000072
:104FC0000000000101000000000000000000002FB0
:104FD000000000000700070000147F147F14002465
:104FE0002A7F2A1200231308646200364955225092
:104FF00000000007000000001C22410000004122C8
:105000001C000014083E08140008083E08080000B0
:1050100000A06000000808080808000060600000A8
:10502000002010080402003E5149453E0000427F26
:105030004000004261514946002141454B31001872
:1050400014127F10002745454539003C4A49493034
:1050500000017109050300364949493600064949EE
:10506000291E0000363600000000563600000008F9
:1050700014224100001414141414000041221408D6
:10508000000201510906003E4955592E007C1211BB
:10509000127C007F49494936003E41414122007F50
:1050A0004141221C007F49494941007F090909010A
:1050B000003E4149497A007F0808087F0000417F8F
:1050C0004100002040413F01007F08142241007F41
:1050D00040404040007F020C027F007F0408107FA8
:1050E000003E4141413E007F09090906003E415111
:1050F000215E007F091929460046494949310001CE
:10510000017F0101003F4040403F001F2040201F21
:10511000003F4038403F00631408146300070870E4
:10512000080700615149454300007F4141000002EA
:1051300004081020000041417F0000040201020425
:105140000040404040400000010204000020545450
:105150005478007F484444380038444444200038A0
:105160004444487F00385454541800087E09010212
:105170000018A4A4A47C007F080404780000447DE7
:105180004000004080847D00007F10284400000023
:10519000417F4000007C04180478007C08040478F7
:1051A00000384444443800FC2424241800182424E3
:1051B00018FC007C080404080048545454200004DF
:1051C0003F444020003C4040207C001C2040201CEC
:1051D000003C4030403C004428102844001CA0A063
:1051E000A07C004464544C440000087F410000004F
:1051F000007F00000000417F08000008040810083C
:10520000EFBC8C0000000000000000000000000067
:1052100000000000000000583800000000000000FE
:105220000000000000E38082000000000000000099
:1052300000000000000000000000000018242418F6
:1052400000000000000000000000E4BDA00000001D
:105250008060F8074020180F08C8080828180001C7
:105260000000FF00100C0340807F0001061800E5DD
:10527000A5BD00001010F01F10F000808282E292A5
:105280008A868000402215081661000040807F0059
:1052900000000000E4B8960000202020FE2020FF3F
:1052A000202020FF20202020000000007F404047D9
:1052B000444444474040400000E7958C0000000013
:1052C00000FE929292FE929292FE00000000080868
:1052D0000484621E010001FE0204040808000000AC
:1052E000000000FF0101013109090909897101016B
:1052F0000101FFFF80808080808096818080808097
:105300008080FF00000000000000000030313233D8
:1053100034353637383941424344454640305800E9
:10532000303132333435363738396162636465661B
:105330004030780004000008000000000000000277
:1053400000010000103031323334353637383961DE
:1053500062636465667870003031323334353637D5
:10536000383941424344454658500000024000004D
:10537000000000A00000000005400000000000C880
:10538000000000000C4000000000409C00000000F5
:10539000194000000020BCBE0000000034400000A6
:1053A000BFC91B8E00000004B5400000504BCFD099
:1053B0006607E2CF010000006C4100003E8251AA66
:1053C000DFEEA73401000000D9420000DCB5A0E206
:1053D0003A301F97FFFFFFFFB4450000FD25A0C82E
:1053E000E9A3C14FFFFFFFFFFF3F00000000008067
:1053F00000000000FF3F00000000008000000000EF
:105400004C550008000000207C000000C40100088A
:10541000C85500087C000020CC0C0000E00100080A
:105420001C00000043000000F8FFFFFF0C0000001C
:105430000E0000000F0000002E0000001001000010
:1054400043000000F8FFFFFF004040404040404064
:105450004040414141414140404040404040404047
:1054600040404040404040404005020202020202EB
:10547000020202020202020202202020202020203A
:10548000202020020202020202029090909090904E
:10549000101010101010101010101010101010100C
:1054A0001010101002020202020288888888888880
:1054B000080808080808080808080808080808086C
:1054C0000808080802020202400000000000000074
:1054D00000000000000000000000000000000000CC
:1054E00000000000000000000000000000000000BC
:1054F00000000000000000000000000000000000AC
:10550000000000000000000000000000000000009B
:10551000000000000000000000000000000000008B
:10552000000000000000000000000000000000007B
:10553000000000000000000000000000000000006B
:10554000000000000000000000000000010000005A
:1055500010000000000000000024F4000000000023
:10556000000000000000000000000000000000003B
:10557000000000000000000000000000000000002B
:105580000000C8420000C842000000000000000007
:10559000000000000000000000000000000000000B
:1055A00000000000000000000000000000000000FB
:1055B00000000000000000000000000000000000EB
:0855C0000000000000000000E3
:040000050800018965
:00000001FF
